:020000040800F2
:1000000000000110D98D0708A91B000885560208B9
:10001000798E0708798E0708798E0708000000009E
:100020000000000000000000000000006142000825
:1000300065420008000000006942000805B8000899
:10004000798E0708798E0708798E0708798E070858
:10005000798E0708798E07082594000829940008EE
:10006000798E07082D94000831940008412100087A
:1000700055210008692100087D2100089121000810
:10008000A5210008B9210008798E0708798E070894
:10009000798E0708798E0708798E0708359400084D
:1000A000ED1F0008152000083D200008D91F00089A
:1000B00065200008792000088D200008798E070847
:1000C000798E0708798E0708798E0708798E0708D8
:1000D000798E0708AD1B0008B91B0008798E070848
:1000E00039940008798E07086D420008C92000087D
:1000F000F120000819210008B5200008CD210008D2
:10010000798E0708798E0708A1200008798E0708E4
:10011000C51B0008798E0708798E0708798E0708B5
:10012000E1210008F5210008092200081D2200082D
:1001300031220008798E0708798E0708798E070822
:10014000798E0708798E0708798E0708B94200086A
:1001500045220008592200086D220008D11B000822
:10016000798E0708798E0708798E0708798E070837
:10017000798E0708798E0708798E0708798E070827
:08018000798E0708798E07084B
:10019000D0E907239A423CBFC1685218D01A704771
:1001A000D0E9092300699A4238BF1218D31A0138DE
:1001B000C01A7047D0E90902101AB0FA80F040095D
:1001C000704700BF0246036A4069D168C05C0133D2
:1001D0008B4228BF00231362704700BF436A8269C5
:1001E000D154436A0169426B01338B4228BF00231B
:1001F0004362D36843F08003D3607047436B188831
:1002000010F0100002D01A889B880120704700BFB0
:10021000436B99891A88890610B504460AD592B2AB
:10022000900607D5E26A002A2AD09888216B80B20E
:100230009047636B99891A88090692B210D5100607
:100240000ED5D4E909128A4215D0A1692069895CCA
:100250000132C9B29980B2FBF0F100FB1122A26217
:10026000998A1A88C90592B204D5D20744BF4FF6BD
:10027000F7721A8010BDDA6822F08002DA60EFE7C8
:100280009B88E2696169DBB28B54E269E168636B68
:100290000132B2FBF1F001FB1022E261CAE700BFBC
:1002A000036942681F2B10B40AD95468A3F1200CCB
:1002B000202101FA0CF1214207D15DF8044B70476F
:1002C0001468202199402142F7D081690024C86830
:1002D0000C7480684C68016821F00101016020689D
:1002E00094F805C00C4C818934F81C4089B221EA8D
:1002F00004011F2B818107D9A3F1200120238B400A
:100300005DF8044BD3607047202101FA03F35DF8D8
:10031000044B9360704700BFDCFB070882B00922E2
:10032000274B8DF80720DA68D00319D4DA68D10694
:1003300040D4DA68D20541D4DA6812F0E00F3BD13C
:10034000DB6813F0020F0CBF092308238DF8073078
:100350009DF80730012B0AD09DF8070002B07047C6
:1003600001238DF807309DF80730012BF4D1144A92
:1003700012E0D368DB0519D4D36813F0E00F17D16E
:10038000D36813F0020F0CBF092308238DF8073040
:100390009DF80730012BDFD1D168C8034FF001036E
:1003A000F4D4D368D906E4D50623EFE70223EDE7BA
:1003B0000723EBE70623D4E70723D2E70223D0E79E
:1003C000003C0240704700BF704700BF704700BF4D
:1003D00001207047034BD3E90003C01AC0F30A00A1
:1003E000704700BFD81E0020054AD2E90013994289
:1003F000FDD0D1180133C3F30A03087A5360704764
:10040000D81E0020064BD3F8080800B97047D3F86F
:100410000808A0F10500B0FA80F04009704700BF5D
:10042000D81E0020012380F849307047044BD3E9DF
:100430000003C01AC0F30A00C0F50060704700BF97
:10044000D81E002010B5D0F8E83504461B6998473F
:10045000032384F81231002010BD00BF08B5042228
:1004600090F81211D0F8E83580F8131180F81221B5
:10047000DB689847002008BD08B5D0F8E435DB6993
:1004800003B19847002008BD08B5D0F8E4351B6AD1
:100490009847002008BD00BF08B5D0F8E4355B6A76
:1004A0009847002008BD00BF10B5074C2068FF2802
:1004B00008D00649D1F80C2801F5016100F03CF89C
:1004C000FF232360002010BD00000020D81E002064
:1004D000432301480B807047040000201223014889
:1004E0000B80704748000020042301480B807047B0
:1004F0005C000020704700BF704700BF704700BF1E
:10050000704700BF704700BF704700BF704700BF13
:10051000044B00200522C3F80828C3F81808C3F8C4
:100520001C087047D81E0020024B0020C3F80808A2
:10053000704700BFD81E0020212838B50C4625D0B2
:10054000222816D0202812D189B1072A0FD1174DA1
:10055000D5F81C3813B10968002098472168A28893
:10056000A379C5F82018A5F8242885F82638002096
:1005700038BD0029FBD0022AF9D10C4BD3F818382A
:10058000002BF4D0098800209847F0E70029EED02E
:10059000072AECD1054BD3F82018B3F8242893F898
:1005A00026382160A280A371E1E700BFD81E002099
:1005B00010B4114CD4E900329A1AC2F30A020A4468
:1005C000B2F5006F13D871B101444A1E013810F81A
:1005D00001CFE118904203F1010381F808C0C3F391
:1005E0000A03F4D1236000205DF8044B7047022019
:1005F0005DF8044B704700BFD81E0020704700BF55
:10060000704700BFD0ED007AD0ED036A30EE677A14
:10061000E6EE877AB0EE670AC0ED007A704700BF59
:1006200090ED017AB5EE407AF1EE10FAF0EE407AF4
:1006300009D19FED0D7A60EE870AF7EE006A86EE2B
:10064000A07A80ED017A31EE077A90ED000A80ED14
:10065000021AC1EE076A77EEC07AC0ED036AA6EE11
:10066000A70A80ED000A7047DB0FC940D0ED056A8C
:10067000D0ED017A90ED066AD0ED025A90ED035A62
:10068000C0ED066AB0EE407A26EEA70AD0ED007AF9
:1006900080ED057AA7EE870AD0ED077AA5EE860AE7
:1006A00090ED086AD0ED045AC0ED087AA5EE670A0D
:1006B000A5EEC60A80ED070A704700BFF0EE406A5B
:1006C000D0ED007A90ED050A90ED037A90ED016A85
:1006D000D0ED025AA7EEA60AD0ED047A27EE407AB2
:1006E00067EEC07AA6EE267AE5EEA67A90ED066A67
:1006F000C0ED067A36EE076A80ED056A704700BFE6
:1007000003685A1C02601970704700BF2DE9F04F52
:10071000D0E90031856889B04A1C00EB8104591882
:10072000F1EE407A0591002D92FBF3F103FB1122CB
:10073000426000F1800A84ED200AC4ED407A00F5A1
:10074000807240F38780691C012603F1FF3B06910C
:100750004FF002090795B6460599A1EB090090FBF9
:10076000F3F103FB1100411C91FBF3F403FB1411A3
:100770000AEB800802EB800CF14501EB0E00D8ED8E
:10078000006A90FBF3F49CED006AA3EB090603FBFF
:10079000140055DDCDE90198CDE903C637460D4675
:1007A000044641E0AB420AEB840902EB840804F101
:1007B000010441DD0AEB850C02EB85060135DCED19
:1007C000007AD8ED005A96ED007AF4EEE67AF1EE72
:1007D00010FA0FDD99ED005AF4EEC57AF1EE10FA39
:1007E00008DDB4EEE65AF1EE10FA58BFF0EE456AB5
:1007F000CCED006AB4EEC67AF1EE10FA0DDDB4EE7F
:10080000E57AF1EE10FA08DDF4EEC65AF1EE10FAD0
:1008100058BFB0EE656A86ED006A01375F4530DA91
:10082000B0EE476AF0EE676AA342BBDCAB4290468B
:10083000D1464FF00104BDDC1646D4460125BEE783
:1008400006990EF1010E714509F102090BF1FF3B0A
:1008500082D1079D0599491B91FBF3F003FB10130F
:100860000AEB830102EB830391ED000A93ED007A1A
:1008700030EE470AF6EE007A20EE270A09B0BDE80E
:10088000F08FDDE90198DDE903C698ED006ADCED43
:10089000006A41E08B420AEB800C02EB800700F11A
:1008A000010041DD0AEB810502EB81040131D5ED48
:1008B000007AD7ED005A94ED007AF4EEC67AF1EEA4
:1008C00010FA0FD59CED005AF4EEC57AF1EE10FA4D
:1008D00008D5B4EEC65AF1EE10FAD8BFB0EE456AAC
:1008E00085ED006AB4EEE67AF1EE10FA0DD5B4EEBD
:1008F000E57AF1EE10FA08D5F4EEE65AF1EE10FAC8
:10090000D8BFF0EE656AC4ED006A01365E4597DA3D
:10091000F0EE476AB0EE676A8342BBDC8B42174653
:10092000D4464FF00100BDDC144655460121BEE718
:1009300003685A1C02601970704700BF024BD3F85D
:10094000280803681B681847D81E002000797047E4
:100950000079C0F34010704700794009704700BF2C
:1009600090F83C20034602F0FF0012B1002283F809
:100970003C2070472DE9F84345697DB90768C7F306
:100980000D0804460E46B8F1000F0AD0D6F80080D4
:10099000FFF7C4FC09283BD06FF001052846BDE8ED
:1009A000F883514B9F422AD303F580439F4224D3BF
:1009B00003F580439F427FD34C4B9F427FD903F581
:1009C00080339F427ED903F500339F427DD903F5E2
:1009D00000339F427CD903F500339F4269D903F568
:1009E00000339F4277D903F580239F4276D9B7F130
:1009F000016F76D305200BF021FE4FF00808FFF7BA
:100A00008DFC092821D04FF0FF352846BDE8F8833A
:100A1000374E336923F440733361336943F4007311
:100A20003361336943F001033361C7F80080FFF796
:100A300075FC3369092823F001033361ACD12368C5
:100A4000043323602846BDE8F883DFF8A490D9F882
:100A5000103023F44073C9F81030D9F8103043F443
:100A60000073C9F81030D9F8103023F0F803C9F832
:100A70001030D9F8103043EA080343F00203C9F8F4
:100A80001030D9F8103043F48033C9F81030FFF734
:100A900045FCD9F8103023F00203C9F81030D9F81A
:100AA0001030092823F0F803C9F810303FF46EAF76
:100AB000A9E74FF03808A2E74FF010089FE74FF082
:100AC00018089CE74FF0200899E74FF0280896E7B0
:100AD0004FF0300893E74FF0400890E74FF0480898
:100AE0008DE74FF058088AE700400008FFFF000834
:100AF000003C02402DE9F0410446D0E900301344A7
:100B000083421DD80D4601EB0208B2B104F10C0777
:100B1000002601E0A84510D023695A1C2261234415
:100B200015F8011B1973042AF4D139462046FFF742
:100B300021FFA845C4E90460EED16069BDE8F081F9
:100B40004FF0FF30FAE700BF2DE9F0411F4E80461D
:100B50000B4696F82C28002AFBD19BB343445F1E1A
:100B600008F1FF38D6F83038D6F834280133C3F30B
:100B70000A039A4216D10AF091FE04460D460AF085
:100B80008DFE001B61EB0501B0F57A7F71F100016C
:100B9000F5D3D6F83038D6F834280133C3F30A0336
:100BA0009342E8D0D6F83028D6F8303818F8011F2C
:100BB00032440133C3F30A03B84582F83818C6F843
:100BC0003038CFD10020BDE8F08100BFD81E002012
:100BD00090F84820531C0244DBB280F8483082F879
:100BE000341090F849204AB1132B06D9002280F81E
:100BF00048200C4AD2F8081829B9704780F84820D4
:100C0000002BF6D17047D2F80828052AF5D110B587
:100C1000054C1946343054F8C03CFFF795FF54F8A2
:100C2000C03C10BDD81E0020D02F00200A4B10B5AC
:100C3000D3F8084804B910BDD3F80838052BFAD109
:100C4000064C002A084654F8C03C1146F3DDFFF775
:100C50007BFF54F8C03C10BDD81E0020D02F0020D0
:100C600090F848100023A0F8483001B97047094BAC
:100C7000D3F80828002AF9D0D3F80838052BF5D185
:100C800010B5054C343054F8C03CFFF75DFF54F804
:100C9000C03C10BDD81E0020D02F00202DE9F04709
:100CA000534E1F4606EB80039C68002C00F09B808F
:100CB00004F13E03A36104F59F73E3614FF4807375
:100CC000C4E904332836236866600546E16094F879
:100CD0003D00A363914608F041FC804694F844022D
:100CE00094F83CA0261D002851D194F8450250BB31
:100CF000D4F840326BBB3A0731D419F0020F49D116
:100D000019F0010F5AD1D4F8483294F9471294F8E7
:100D100047221B010029DBB20DDB3649881880F819
:100D200000335009012302F01F02934041F82030A4
:100D30003046BDE8F087304902F00F0211443046DA
:100D40000B76BDE8F08772F0EBFCD4F84032002B54
:100D5000D1D02A4A116B0B4313633A07CDD5013525
:100D6000EDB2B8F1000F05D040F2067388F80850D4
:100D7000A8F80630FB0694F846222FD417F0200F6F
:100D80000CBF32211221404608F0AEFBBBE772F0E7
:100D9000C7FCAAE76B1CDBB2B8F1000F05D088F8DE
:100DA000083040F20653A8F8063094F84622404630
:100DB000022108F099FB19F0010FA4D0504608F069
:100DC000CDFB0135EDB218B140F20663C380057268
:100DD00094F84622022108F087FB94E7022140465E
:100DE00008F082FB8FE726463046BDE8F08700BF5B
:100DF000DCFB070800E100E0FCEC00E0003802400A
:100E00002DE9F047038A8489A4B21C4082B047D000
:100E1000814688464FF0004501F14C0701F1340648
:100E2000B4FA84F325FA03F2D24391B2A9F8101070
:100E300014401B3BB8F1000F5FD0042B2ED8DFE825
:100E400003F052483D320300D8F80C30D9F82CA0FA
:100E500033B19B6823B11FFA8AF108F10400984767
:100E6000D8F8243033B19B6823B11FFA8AF108F116
:100E70001C009847D8F83C3033B19B6823B11FFA67
:100E80008AF108F134009847D8F8543033B19B68A0
:100E900023B11FFA8AF108F14C009847002CBFD10A
:100EA00002B0BDE8F087D8F80C30D9F834105B6890
:100EB00008F104009847002CB2D1F1E7D8F82430AB
:100EC000D9F838105B6808F11C009847002CA7D1AE
:100ED000E6E7D8F83C30D9F83C105B6830469847D4
:100EE000002C9DD1DCE7D8F85430D9F840105B686D
:100EF00038469847002C93D1D2E7042B07D8DFE877
:100F000003F01903140F0A00D9F83C300193019B38
:100F1000002C85D1C4E7D9F82C300193019BF7E769
:100F2000D9F834300193019BF2E7D9F838300193B6
:100F3000019BEDE7D9F840300193019BE8E700BF42
:100F4000F8B5264C94F82C28012A034603D0022A2F
:100F500009D00020F8BD224E56F8BC5C8DB984F84B
:100F60002C580020F8BD002540F20112C0E954556C
:100F7000C0E95655A0F8442100F5A27176F0FEFDB7
:100F8000EDE7402D20D94027D4F83418154AC3F88E
:100F900058710A44C3E9542240F20112A3F84421D3
:100FA0000022C3F85C2103F5A271184676F0E6FD35
:100FB000D4F834383B44ED1BC3F30A03C4F8343887
:100FC00046F8BC5C0020F8BDAAB2402A01D02F46EA
:100FD000DAE7022284F82C28D5E700BFD81E0020CB
:100FE000D02F00201027002001EB810138B500EB45
:100FF000C1010F4DB1F88C1304462846FFF7D8FA0B
:10100000E378C4F8A853012083424FF000024FF068
:101010004001C4E9EC12A4F89C0304F56771204672
:1010200008BFC4F8AC5376F0A9FD002038BD00BF5E
:10103000182F0020F8B52A4C54F8783C0F2B04D018
:101040005A1C44F8782C0020F8BD264D95F82C3811
:10105000002244F8782C002BF5D1D5F83428D5F8A7
:1010600030389A42EFD0D5F83428D5F830389A4243
:101070002DD8D5F83068D5F83438F61A402E2BD84C
:10108000B3B2402B13BF3746402702230123D5F8C4
:10109000342885F82C38144BC0F858711344C0E933
:1010A000543340F20113A0F844310023C0F85C31FE
:1010B00000F5A27176F062FDD5F834383B44F61B9A
:1010C000C3F30A03C5F8343844F8BC6CBBE7D5F861
:1010D0003468C6F50066D1E701234027D7E700BF93
:1010E000D02F0020D81E0020102700202DE9F0412D
:1010F000B0F8CC15D0F8CE35B0F8D255B0F8D085D0
:10110000C0F84051012284B080F8112101F01F0283
:10111000012A044600F2CC56ADF80810C1F3072EA0
:10112000CDF80A30ADF80E504FEA134C4DD0022ADC
:101130007746C9B29BB210D0002A51D1BEF1090F37
:1011400047D8DFE81EF0850097004600B200460051
:101150004401C7004600FB001B0101F0600120298B
:101160005FFA8CF26ED0012F00F0A081032F00F007
:1011700089818FBB90F81231022B00F0CB81032BB9
:1011800027D11CF0800F40F0D18102EB820200EBEE
:10119000C20393F87613003918BF0121B64A42F80A
:1011A000641D02234FF480700021C4E94C31A4F87F
:1011B0001C01C4E94E33C4E94A2284F8113104F514
:1011C0008E71204676F078FC06E090F81231032B01
:1011D0000ED0204676F0FEFB002004B0BDE8F08182
:1011E00001F0800176F02EFC002004B0BDE8F08113
:1011F0005FFA8CFCBCF1010FEBD8D0F8E43502A902
:101200009B689847BDF80E30002BE5D1C4E94A33FE
:10121000C4E94C3304214FF4807284F81111A4F80E
:101220001C2104F58E71204676F046FC636D934ACE
:101230001A61E278012ACFD15E614FF080221968ED
:101240001A60C9E7D0F8E43502A99B689847C3E75C
:1012500090F81231023B012BBBD8874BD0F81821F4
:10126000002143F86C1C12B1022243F86C2C844A12
:10127000022397E790F81221023A012AA9D8012BFC
:10128000AAD1D0F8E43500259B68C0F8185102A90E
:10129000984704224FF48073C4E94A55C4E94C5579
:1012A00084F81121A4F81C31BBE7012B00F039812F
:1012B000022B91D15FFA8CF3002B8DD103694FEA99
:1012C0001C22023A5B68032A00F2BD81DFE802F0CB
:1012D000B6CED2D01E0A022EADF8065000F08A819A
:1012E000032E00F04E81012E7FF473AFD0F8EC3561
:1012F00080781B680DF106019847BDF80630002B79
:101300003FF46AAFBDF80E20002A3FF465AF934268
:1013100028BF13464FF480720221A4F81C2100223A
:10132000C4E94A0084F81111C4E94E33C4E94C32CF
:1013300004F58E71204676F0BFFB4DE7012D7FF45A
:1013400048AF90F81231022B00F00881032B7FF494
:1013500040AF4FF4807200F588730221A0F81C2181
:10136000002280F81111C0E94E55C0E94A33C0E9A6
:101370004C5200F58E7176F09FFB2DE7DDB23E4FAB
:10138000012D07F8745C3FF624AF90F81231022B60
:1013900000F0D880032B7FF41CAF002D00F03581C6
:1013A00090F81011012910D0D0F8E4355B68984707
:1013B00017F8741CD4F8E43584F810111B68204623
:1013C0009847D4F8E8359B68984700231EE758EA09
:1013D00005027FF4FEAE90F8121103293FF4F9AE36
:1013E00003F07F0580F814510069114663F30A1178
:1013F000036819430423016084F811314FF48073AA
:10140000C4E94A22C4E94C22A4F81C3104F58E71C7
:10141000204676F051FB636D184A1A61E278012A82
:1014200006D0002D00F0FC80022384F81231D3E6B0
:101430005E614FF0802219681A60F2E702210E48BF
:1014400061F30613002240F8683C0423C4E94A22F1
:10145000C4E94C2284F8113101224FF4807304F561
:101460008E7184F81621A4F81C31DCE60321E6E72E
:101470000521E4E70421E2E7D02F002018000860EE
:10148000642F002090F81211022943D003297FF421
:10149000A0AE23B9510602D0114676F0D3FAD4F8A3
:1014A000E4359B6802A9204698478EE790F8121110
:1014B00002292FD003297FF48CAE002B7FF48CAE51
:1014C00012F07F0181D01CF0800F40F0AD8002EB64
:1014D000820100EBC10181F8763381F8753328234E
:1014E00081F8742303FB020300EB820193F8772356
:1014F000496D0B68023A012A23F400138CBFC3F331
:101500000072012262F31C73D4F8E4250B60936827
:1015100002A9C8E753063FF45FAE114676F092FA8F
:101520005AE6D0F8E425C0F81831F0E702F07F025F
:1015300002EB820200EBC20393F81E11003918BFC0
:1015400001212BE6002D3FF4A4AE01210322D0F8A7
:10155000E43580F8101180F812212FE73B4A80F81B
:1015600011314FF480710023A0F81C11C0E94E55D1
:10157000C0E94A22C0E94C5300F58E7176F09CFA1E
:101580002AE6DBB2052B3FF624AEDFE803F02B237F
:101590001B130B03D0F8EC3580789B690DF1060125
:1015A0009847AAE6D0F8EC3580785B690DF1060122
:1015B0009847A2E6D0F8EC3580781B690DF106015A
:1015C00098479AE6D0F8EC358078DB680DF1060193
:1015D000984792E6D0F8EC3580789B680DF10601CB
:1015E00098478AE6D0F8EC3580785B680DF1060103
:1015F000984782E6D0F8E43580789B6A0DF10601C1
:1016000098474670C4F8F00577E60222D0F8E43532
:1016100080F8122180F810515B682946984738E617
:10162000012384F81231D7E5282202FB010080F85B
:101630001C1104EB810180F81E3180F81DE190F847
:101640001F21896955E70121F9E600BF602F0020BD
:1016500010B5044629B990F81121032A0DD00020B5
:1016600010BDD0F8E4359B69002BF8D090F812211A
:10167000032AF4D19847002010BDD0F890230B46E0
:10168000D0F87C138A4219D9521AC0F8902394F8E2
:1016900003C0D0F880038A4228BF0A46BCF1010F7C
:1016A00092B234D0C4E9E22304F55D71C4F880033A
:1016B000A4F87433204676F0FFF9D0E7D0F8E4358B
:1016C0001B691BB190F81221032A1ED000234FF48E
:1016D00080720421C4E94A33C4E94C3384F81111FF
:1016E000A4F81C2104F58E71204676F0E5F9636DAF
:1016F0000D4A1A61E278012AB1D104F2CC545C613E
:101700004FF0802219681A60A9E79847DEE708447D
:10171000C4E9E22304F55D71C4F88003A4F87433CE
:10172000C4F88403C6E700BF1800086038B5044653
:1017300049B990F81131022B11D094F81631012BD0
:1017400039D0002038BDD0F8E4355B69002BF8D0E3
:1017500090F81221032AF4D19847002038BDD0F820
:101760003831D0F8242193422FD990F803C09B1A26
:10177000BCF1010F0D46C0F83831D0F828116ED0F9
:101780009BB2C0F830314FF48073C0E94A11C0F801
:10179000345100F58E71A0F81C3176F08DF9C4E952
:1017A000E255C4F8805304F55D71A4F874532046E3
:1017B00076F082F9C1E73F4B226953F8681C51600B
:1017C000002384F81631002038BDD0F83C31B3FB3B
:1017D000F2F502FB15350DBB9A421FD8D0F8402117
:1017E00093421BD24FF48073A0F81C3100F58E7128
:1017F000C0E94A55C0E94C5576F05EF9E378C4F883
:101800004051012BC4E9E255C4F88053A4F8745345
:1018100008BFC4F8845304F55D71C8E7D4F8E43513
:10182000DB681BB194F81221032A15D0E27800235B
:101830000521012A84F81111C4E9E233C4F8803388
:10184000A4F8743304F55D7124D0204676F034F9A1
:10185000636D194A1A6170E720469847E6E79BB224
:101860001144C0F830314FF48073C0E94A11C0F818
:10187000345100F58E71A0F81C3176F01DF9C4E9E1
:10188000E255C4F8805304F55D71A4F87453C4F8AC
:1018900084538CE7C4F88433204676F00DF9636DE9
:1018A0000548186104F2CC525A614FF080211A6841
:1018B000196042E7D02F00201800086070B50B783F
:1018C00013F060020D46044624D0202A04D020469E
:1018D00076F080F8022070BDCA8848781AB31B06DB
:1018E00040D5324E3146FEF727FEEB884FF480722A
:1018F0000221A4F81C21002284F81111C4E94E33FE
:10190000C4E94A66C4E94C3204F58E71204676F08B
:10191000D3F806E04B780A2B10D00B2B08D0062BFF
:10192000D5D0002070BD02221144FEF705FEF8E775
:101930008B78C3BB1E4A42F8603CF2E7022180F874
:1019400011114FF48071A0F81C111A490123C0E94C
:101950004A11C0E94E33C0E94C3200F58E7176F081
:10196000ABF8DEE71449154B0860E078C3F80C28A3
:10197000002103F5016301284FF00305C4F88C131F
:10198000A4F87413C4E9E42284F81151C4F888233C
:10199000C4F8803304F55D7108BFC4F88433204671
:1019A00076F08AF8BDE776F015F8BAE7E826002069
:1019B000D02F0020702F002000000020D81E002013
:1019C00070B5002540260446A0F87453C0F87C6327
:1019D00080F8775300F55D7176F09CF94FF48073D1
:1019E000A4F81C3104F58E712046C4F8246184F8F3
:1019F0001F51A4F8225176F08DF9D4F8E835A0787B
:101A0000012284F812215B689847284670BD00BF08
:101A10002DE9F04140F2011304460126022540273A
:101A2000A0F84431C0F84C71A0F84A61A0F84751C1
:101A300000F5A27104F5677876F06CF9414620460E
:101A4000A4F89C63C4F8A473A4F89F5376F062F9D9
:101A50004FF48173A4F86C310823C4F87431032364
:101A600084F86F3104F5B6712046A4F8725176F00F
:101A700051F90D4BA3F84C50FEF74AFD0022C4F873
:101A8000B423E278094BC4F8A833B2422046C4F824
:101A9000B073A4F89C6308BFC4F8AC33414676F039
:101AA0006DF80020BDE8F08100000020182F002014
:101AB00038B50122044640F20113A0F84431012553
:101AC000114676F00FF9294620460022A4F89C53CF
:101AD00076F008F94FF48173A4F86C3120460221A6
:101AE0002A4676F0FFF8FEF71FFD002038BD00BF44
:101AF00008B5024871F0ECFD014808BDD0A4080803
:101B0000742F002008B5024871F0E2FD014808BDBD
:101B1000E0A40808742F002008B5024871F0D8FD31
:101B2000014808BDE8A40808742F002008B5024841
:101B300071F0CEFD014808BDF4A40808742F002000
:101B400008B5024871F0C4FD014808BD00A50808A9
:101B5000742F00201049114BD1F8882042F47002F4
:101B600010B4C1F888201A680D4C002042F0010220
:101B70001A6098601A6822F0847222F480321A6027
:101B80005C601A68074C22F480221A60D8608C606E
:101B90005DF8044B704700BF00ED00E000380240E4
:101BA0001030002400000008704700BF0148FEF715
:101BB0002FBB00BF640000200148FEF729BB00BF17
:101BC000B00200200148FEF723BB00BFFC04002048
:101BD0000148FEF71DBB00BF48070020704700BF4B
:101BE00038B5D0E9004007EE902A0068324A334BFE
:101BF0002468D3F890392468013990428DB210D00E
:101C000002F5806290420CD002F57052904208D0EA
:101C100002F58062904204D002F58062904218BFC3
:101C20005B0807EE103AF8EE677AB8EE477ADFED18
:101C3000246A87EE270A30EE260A78F0D3F81E4988
:101C40002388421E8C4292B29BB21AD01D498C420C
:101C500017D0B4F1804F1FD0A1F580318C421BD03A
:101C600001F580618C4217D001F580618C4213D060
:101C700015498C4219D123800123E5622285A38274
:101C800038BD23F45C739BB223800023E562228578
:101C900023860123A38238BD23F45C739BB2238087
:101CA0000123E5622285A38238BD08498C42E2D037
:101CB00023F440739BB2DEE70000014000000020E7
:101CC0000AD7233C000401400010004000140040EB
:101CD00070B54268937903F0020E13F004033AD111
:101CE00075469C469E464FF4807001235479032C20
:101CF00030D8DFE804F08E6202361468704E228C11
:101D000022F480721204120C2284228C22F40072BB
:101D100012042B43120CA58842EA0322A38B23F062
:101D200073031B041B0CB442ADB243F0600300F01C
:101D30009B8006F58066B44200F09680A580A38360
:101D4000E1632284A38B23F008031B041B0C43F0E4
:101D50000803A38370BD002005464FF0040C034622
:101D6000C4E71268564E148C24F480542404240CC6
:101D70001484148C24F4005424042B43240C9588DC
:101D800044EA0334938B23F4E6431B041B0CB24256
:101D9000ADB243F4C04375D006F58066B24271D04F
:101DA0009580938311641484938B23F400631B0444
:101DB0001B0C43F40063938370BD1468404E228C67
:101DC00022F010021204120C2284228C22F0200233
:101DD00012042B43120CA58842EA0312238B23F42E
:101DE000E6431B041B0CB442ADB243F4C04359D0CC
:101DF00006F58066B44255D0A5802383A163228472
:101E0000238B23F400631B041B0C43F40063238324
:101E100070BD1268148C24F001042404240C148472
:101E2000148C968824F0020424042B43240C1C43B5
:101E3000138B234D23F073031B041B0CAA42B6B271
:101E400043F0600323D005F58065AA421FD0968039
:101E5000138351631484138B23F008031B041B0C9E
:101E600043F00803138370BD22F4006242EA0E229D
:101E700022F4806292B225F4405542EA0C2245EAEF
:101E800000155BE725F4804545EA801588E726F4D0
:101E9000407606434FF6F370204040EA0E0040EAD9
:101EA0000C04D4E722F0800242EA0E1222F0400233
:101EB00092B225F4406542EA0C1245EA80059BE7A0
:101EC0000000014042685379032B0FD8DFE803F08C
:101ED0000B08050210684030704710683C307047AE
:101EE00010683830704710683430704700207047F1
:101EF00070B4EFF31182102383F31288C46846682C
:101F0000A5682B6823F001032B603568114B7679A7
:101F100033F81660AB899BB223EA0603AB812369D1
:101F200065681F2B11D9203B202404FA03F3EB60D2
:101F3000D3B283F31188C3689B6859601A6801247F
:101F400022431A60047470BC7047202404FA03F31F
:101F5000AB60EDE7DCFB070803681A7D012A04BFCC
:101F600002221A7593F82C100CBF4FF40072002255
:101F700001291BD093F84410012905D093F85C1077
:101F8000012920D02ABB7047022183F8441093F81E
:101F90005C10012942F4006215D043681B680021DF
:101FA0005962998989B20A439A817047022183F85C
:101FB0002C1093F84410012942F48062E4D093F885
:101FC0005C100129E9D1022183F85C1042F48052AF
:101FD000E3E74FF40072E0E7024B0348D3F8A410A4
:101FE000FEF70EBFD02F00200000014010B5064CB8
:101FF0000648D4F8A410FEF703FFD4F8C410044830
:10200000BDE81040FEF7FCBED02F002000000140CC
:102010000040014010B5064C0648D4F8A410FEF765
:10202000EFFED4F8C8100448BDE81040FEF7E8BE43
:10203000D02F0020000001400044014010B5064CA4
:102040000648D4F8A410FEF7DBFED4F8CC10044800
:10205000BDE81040FEF7D4BED02F002000000140A4
:1020600000480140034B4FF08040D3F8A810FEF722
:10207000C7BE00BFD02F0020024B0348D3F8AC10DE
:10208000FEF7BEBED02F002000040040024B0348E4
:10209000D3F8B010FEF7B4BED02F002000080040E7
:1020A000024B0348D3F8B410FEF7AABED02F00208D
:1020B000000C0040024B0348D3F8C010FEF7A0BE4E
:1020C000D02F00200004014010B5064C0648D4F87B
:1020D000C010FEF795FED4F8D0100448BDE81040BB
:1020E000FEF78EBED02F00200004014000180040F3
:1020F00010B5064C0648D4F8C010FEF781FED4F89F
:10210000D4100448BDE81040FEF77ABED02F00205E
:1021100000040140001C004010B5064C0648D4F8ED
:10212000C010FEF76DFED4F8D8100448BDE810408A
:10213000FEF766BED02F00200004014000200040C2
:102140000348D0F8A03913B100F69410184770472F
:10215000000000200348D0F8C03913B100F6B410D5
:1021600018477047000000200348D0F8E03913B149
:1021700000F6D41018477047000000200348D0F83C
:10218000003A13B100F6F410184770470000002021
:102190000348D0F8203A13B100F6142018477047CE
:1021A000000000200348D0F8403A13B100F6342074
:1021B00018477047000000200348D0F8603A13B178
:1021C00000F6542018477047000000200348D0F85C
:1021D000803A13B100F674201847704700000020C1
:1021E0000348D0F8A03A13B100F69420184770477E
:1021F000000000200348D0F8C03A13B100F6B42024
:1022000018477047000000200348D0F8E03A13B1A7
:1022100000F6D42018477047000000200348D0F88B
:10222000003B13B100F6F42018477047000000206F
:102230000348D0F8203B13B100F61430184770471C
:10224000000000200348D0F8403B13B100F63430C2
:1022500018477047000000200348D0F8603B13B1D6
:1022600000F6543018477047000000200348D0F8AB
:10227000803B13B100F6743018477047000000200F
:1022800002683649002310B422F00102212488425A
:102290000260036043608360C3600361446138D0BF
:1022A0002F4B98422ED02F4B98423CD02E4B984229
:1022B00040D02E4B984232D02D4B984241D02D4BDE
:1022C000984246D02C4B984217D02C4B98423CD089
:1022D0002B4B984216D02B4B984224D02A4B984235
:1022E00028D02A4B98421AD0294B984229D0294B02
:1022F00098422ED0284B984208D14FF03D5243F8D7
:10230000AC2C03E04FF4746243F8202C5DF8044BCE
:102310007047224B5DF8044B3D229A607047204A7B
:1023200043F8642CF2E74FF474125DF8044B43F861
:10233000382C70474FF074625DF8044B43F8502C12
:102340007047184A43F87C2CE0E73D2243F8082CFC
:10235000DCE7154A43F8942CD8E700BF1060024030
:1023600028600240406002405860024070600240B5
:1023700088600240A0600240B860024010640240E1
:102380002864024040640240586402407064024085
:1023900088640240A0640240B864024000600240C9
:1023A0003D000020400F002000003D20214A93689E
:1023B00003F00C03042B10B43AD0082B1FD01E4B93
:1023C0001C4C0360A1681D4AC1F30311114491F82C
:1023D0005C10CB404360A168C1F38221114491F8A5
:1023E0005C1023FA01F18160A1685DF8044BC1F330
:1023F00042310A4492F85C20D340C360704753686E
:10240000516813F4800F536814BF0D4A0A4AC3F38E
:10241000881301F03F01B2FBF1F202FB03F3054A1E
:102420005268C2F3014201325200B3FBF2F3C7E734
:10243000034BC5E7003802400024F400DCFB07082A
:1024400000127A0070B5446B8668A38923F40053A8
:102450001B041B0CA381857990F805C02B0303F4A2
:102460000051C5F380000CF001032A029B001CF010
:10247000020F4FEA003002F4806218BF43F00803F5
:1024800002431A43238A9BB223F440530B43238213
:10249000A38923F4B05323F00C031B041B0C134338
:1024A000A381A38A23F440731B041B0C84B0A38272
:1024B0006846FFF77BFF234B9C4205D003F5806302
:1024C0009C4201D0029B00E0039BA2891E4912049A
:1024D00003EB83034CBF7600B60003EB8303B3FB2F
:1024E000F6F3A1FB0302A08952096426000406FB4F
:1024F00012334FEA02121CD41B013233A1FB031327
:10250000C3F3431313439BB223812A07A38A0AD53B
:102510009BB243F00803A382A3899BB243F4005308
:10252000A38104B070BD23F008031B041B0CA3821D
:10253000F2E7DB003233A1FB0313C3F3421313436F
:10254000E1E700BF001001401F85EB512DE9F84382
:102550001D462E4B9DF820609DF824909842884699
:1025600017463BD02A4B984240D02A4B984245D040
:10257000294B984221D14B46324629460520FEF789
:102580008DFB04460023C4E90B87C4E90733C4E983
:1025900009336671A56084F806902046FFF752FF64
:1025A000F107626B12D4B3070BD493899BB243F447
:1025B000005393812046BDE8F88300242046BDE8FF
:1025C000F883D36843F08003D360EEE74FF6DF7300
:1025D0001380D36843F02003D360E4E74B463246D0
:1025E00029460020FEF75AFB0446CBE74B4632460D
:1025F00029460120FEF752FB0446C3E74B4632460C
:1026000029460320FEF74AFB0446BBE700100140C1
:1026100000440040004C004000140140816011E77C
:1026200041710FE781710DE72DE9F043704F07EB22
:10263000C00985B005464FEAC00899F8980B06F026
:102640008DFF064699F8990B06F088FF044699F825
:102650009A0B71F065F86B1CDBB21EB140F60C12E0
:102660003372F2801CB1237240F60C23E3803046B3
:1026700004223A2106F038FF042220463A2106F0CF
:1026800033FF07EB08025B4BD2F8944B9C4200F0FF
:102690008E80594B9C4200F09580584B9C4200F034
:1026A0009C80474497F89B3B022B32D0032B7CD075
:1026B0005349544F012B08BF0F46A6886846FFF7C1
:1026C00075FE26F03F06029B4F4AB3FBF7F1360436
:1026D000A2FB0323360C46EA9346A680228822F00A
:1026E00001021204120C22808AB2C1F30B019B0C6E
:1026F00009B942F001024FF4967101FB03F343491B
:10270000A1FB03139B0901339BB242F400422384D3
:102710001FE0A6886846FFF749FE26F03F06029AAA
:10272000394B3604A3FB0213360C46EA9346A680C7
:10273000218821F001010904090C21803449920902
:10274000A1FB021292099B0C0133042A238438BF97
:102750000422A28323882F4A9BB243F001032380E3
:10276000238823F4816323F002031B041B0C4FF422
:10277000804143F4806323802181238823F08003F8
:102780001B041B0C238023889BB202EB451243F0F1
:10279000010323800121002382F8E05082F8E11038
:1027A00082F8E23005B0BDE8F0831B4F85E703F502
:1027B000F2331A6A42F400121A621A6A22F4001200
:1027C0001A626EE703F5F0331A6A42F480021A6265
:1027D0001A6A22F480021A6263E703F5EE331A6A7A
:1027E00042F400021A621A6A22F400021A6258E7DE
:1027F000000000200054004000580040005C0040F1
:10280000009F2400804F120083DE1B43D34D6210D3
:10281000632D3E05D02F0020C02709002DE9F04789
:10282000924E90F900108046807806EBC105013881
:10283000CC0090B0D5F8941B14282DD8DFE810F008
:102840004C012001150055005F009E00A600C30149
:10285000B6017A0084003C020402D701C000D00017
:102860002F003700A30195015401888A0C8B81B297
:102870007F4841EA0441884300F02081D8E9020101
:10288000101A42F2107263EB0101904271F10001E3
:1028900002D3152388F8023010B0BDE8F08798F80D
:1028A00013000882C8E90223122088F80200888AEF
:1028B0000C8B80B240EA04406E4C844300F0B2803E
:1028C00000200E900F9001200F910E900E9900297C
:1028D00000F017820F9914310F910F99096849057B
:1028E000CCD5142388F80230D6E798F8110000F010
:1028F000FE000882C8E90223052088F80200888AC1
:102900000C8B80B240EA04405B4C844300F0A18011
:102910000020009001900120019100900099002971
:1029200000F0FB81019914310191019909684F056B
:10293000D7D4A3E798F8110040F001000882C8E955
:1029400002230B2088F80200888A0C8B80B240EAB0
:1029500004404A4C84436DD000200490059001202F
:10296000059104900499002900F0D1810599143152
:102970000591059909684D05B3D47FE798F81300D0
:102980000882C8E90223072088F80200888A0C8B95
:1029900080B240EA0440374C84435ED0002002906D
:1029A00003900120039102900299002900F0C18157
:1029B000039914310391039909684E0591D45DE799
:1029C000088820F480600004000C088098F811004A
:1029D00000F0FE000882C8E90223102088F80200F7
:1029E000888A0C8B80B240EA0440234C844312D086
:1029F00000200C900D9001200D910C900C99002955
:102A000000F091810D9914310D910D9909684805D7
:102A10003FF567AF32E798F81330FF2B06D198F8EF
:102A200010301BB1132388F8023035E7112388F8E2
:102A3000023031E7D8F81400012800F08F81022815
:102A400000F04382098B0E21C8E9022388F80210A6
:102A500022E7062388F802301EE7D8F81400002881
:102A600000F06D81082388F8023015E7000000208F
:102A70000100030084000700820007000200030039
:102A8000088820F400600004000C0880088880B2E8
:102A900040F480600880088880B240F4807008802C
:102AA000032088F80200888A0C8B81B2A94841EA89
:102AB00004418843C8E902237FF4EEAE98F812304F
:102AC000002B40F0CE8198F81330FF2B00F03F82AE
:102AD000042388F80230DFE6098889053FF5CEAE89
:102AE000002388F80230D7E6344494F8980B06F0B7
:102AF00035FD064694F8990B06F030FD964AB2F87B
:102B0000403101339BB28246A2F8403116B133689E
:102B1000B2881A83BAF1000F04D0DAF80030BAF89C
:102B200004201A831121304604F078FB112150460D
:102B300004F074FB4FF0090965272EB13368B288A1
:102B400019690A4240F02381013F00F01D8108F01D
:102B5000A5FE04460D4608F0A1FE001B61EB050131
:102B6000052871F10001F6D3E7E7088880B240F448
:102B7000007008804FF6FF3088820121C8E90223E7
:102B800088F8021088E6D8F81400002800F06D815B
:102B9000D8F8184014F8016B0E8201381225C8E9E4
:102BA0000504C8E9022388F8025075E6888A0C8B70
:102BB00081B2684841EA044188437FF45FAE0A234A
:102BC00088F8023068E6088880B240F48070088097
:102BD000092088F80200888A0C8B81B25D4841EA9E
:102BE00004418843C8E902237FF456AEE7E7002496
:102BF00001250A940B940B910A950A98002800F07D
:102C000047810B9814300B900B98006846077FF5AE
:102C100035AED8F81400032800F06D81022800F2C8
:102C20004381088820F480600004000C0880088834
:102C300080B240F400700880098A88F81C40C8E916
:102C4000022388F8025027E600200124089009900A
:102C5000099108940898002800F01481099814300C
:102C600009900998006847077FF508AEEFF31185D2
:102C7000102080F31288088880B240F40070088029
:102C8000D8F818000E8A471CC8F81870EDB2067004
:102C900085F311880D8AD8F818106FF001004E1CCA
:102CA000C8F818600D70C8E90223C8F8140088F845
:102CB0001C4088F80240EFE50020069007900120B4
:102CC00007910690069C002C00F0E880079C1434C5
:102CD0000794079C246864067FF5D0AD0C8AD8F869
:102CE00018104D1CC8F818500C70D8F8141088F83B
:102CF0001C000139C8E90223C8F8141088F8020042
:102D0000CAE50F9918310F910F990968B6E5059931
:102D10001831059105990968B0E5019918310191BB
:102D200001990968AAE50D9918310D910D99096865
:102D3000A4E5039918310391039909689EE5088871
:102D400080B240F4007008800121C8E9022388F8AD
:102D50000210A1E501000300D02F0020088820F414
:102D600080600004000C0880EFF31184102080F3D1
:102D70001288088B088880B240F40070E4B20880A2
:102D800084F311880C215FE616B13368B2885A8348
:102D900008F084FD04460D4608F080FD001B61EB41
:102DA0000501052871F10001F6D316B13368B28828
:102DB0001A8308F073FD04460D4608F06FFD001BF2
:102DC00061EB0501052871F10001F6D3B9F10109A4
:102DD0007FF4B2AE16B13368B2885A8308F05EFD54
:102DE00004460D4608F05AFD001B61EB050105285D
:102DF00071F10001F6D3BAF1000F04D0DAF8003017
:102E0000BAF804205A8308F049FD04460D4608F03C
:102E100045FD001B61EB0501052871F10001F6D3AA
:102E200016B13368B2881A8308F038FD04460D469F
:102E300008F034FD001B61EB0501052871F100016C
:102E4000F6D3BAF1000F04D0DAF80030BAF8042053
:102E50001A8398F90000441C3FF442AEFFF7E4FBEC
:102E60003EE60F2388F8023016E5088880B240F469
:102E7000007008800121C8E9022388F81C1088F836
:102E8000021009E509991831099109990968F5E4D1
:102E90000B9918310B910B990968EFE407991831D8
:102EA000079107990968E9E4D8F81800098A441CD1
:102EB000C8F818400170D8F81410C8F80820013973
:102EC000C8F81410C8F80C30E6E4088880B240F462
:102ED00000600880EFF31184102080F31288088BC3
:102EE000088820F480600004000CE4B2088084F3B9
:102EF00011880D21A8E5088820F480600004000CEA
:102F00000880EFF31184102080F31288D8F818009D
:102F10000D8A461CC8F818600570088880B240F415
:102F20000070E4B2088084F31188D8F81800098A88
:102F3000441CC8F818400170D8F814100C2002394D
:102F4000C8E90223C8F8141088F80200A4E498F82D
:102F50001030002B3FF4BCAD31E600BF38B5174D43
:102F60009DF814E005EB40144FEA401C94F8E10092
:102F700000B938BD490084F8F320C4F8F43084F86F
:102F8000F1100023049984F8F0E00222E03584F87F
:102F9000F230C4F8F81084F8FC3084F8E22065447C
:102FA00008F07CFC02460B462846FFF737FC94F8F5
:102FB000E230002BF4D194F8FC0038BDD02F002073
:102FC000F0B5044683B00D461746061D2068037908
:102FD000012B1AD0022B02D0002003B0F0BD836871
:102FE000DB0732464FF0FF015CBF3246FF2105F0A0
:102FF00053FB0028F0D015B12379DB07E6D4002F6E
:10300000EBD023793B7003B0F0BD8268417C90F92E
:10301000100002F00102CDE90062FF22FFF79EFFDF
:10302000E7E700BF30B50446051D20680379012B92
:1030300083B017D0022B02D0002003B030BD8368CC
:10304000DB072A464FF0FF015CBF2A46FF2105F04F
:1030500023FB0028F0D02379DB07EED52068037925
:10306000012BE7D18268417C90F9100002F0010247
:10307000CDE90052FF22FFF771FFEAE730B50246C3
:10308000044652F8040B0379012B83B00ED0022BB7
:1030900001D0002008E0FF2105F0FEFA0028F8D05A
:1030A0002079C04300F0010003B030BD8568417C49
:1030B00090F91000009205F001050195FF22FFF73D
:1030C0004DFFEBE730B5B42283B00446FF21006822
:1030D00004F08AF910B9002003B030BD20680379EC
:1030E000012B04F1040514D0022BF4D18368DB0713
:1030F0002A464FF0FF015CBF2A46FF2105F0CCFABB
:103100000028E8D02379DB07E6D520680379012B76
:10311000EAD18268417C90F9100002F00102CDE909
:103120000052FF22FFF71AFFEAE700BF30B50A4658
:1031300083B00446A521006804F056F910B90020B8
:1031400003B030BD20680379012B04F1040514D0CD
:10315000022BF4D18368DB072A464FF0FF015CBFE6
:103160002A46FF2105F098FA0028E8D02379DB07EA
:10317000E6D520680379012BEAD18268417C90F979
:10318000100002F00102CDE90052FF22FFF7E6FE37
:10319000EAE700BF70B582B0CDE900230446FFF72F
:1031A00091FF10B9002002B070BD20685522A52102
:1031B00004F01AF90028F5D0251D20682A46FF21C1
:1031C00005F0BCFA0028EDD02379DB07F5D40DF12A
:1031D000FF350DF1070615F8011F2046FFF7A6FF82
:1031E0000028DFD0B542F6D1DDE700BF002A35D098
:1031F000F0B5044683B00E468F18051D16F8012B56
:103200002068A52104F0F0F890B9002003B0F0BDCB
:103210008268417C90F9100002F00102CDE9005271
:10322000FF22FFF79BFE0028EFD02379DB0710D5A4
:1032300020680379012BEBD0022BE6D18368DB07F2
:103240002A464FF0FF015CBF2A46FF2105F024FA11
:10325000E9E7B742D2D1012003B0F0BD01207047A9
:1032600070B5962282B004460E460068FF2104F035
:10327000BBF810B9002002B070BD251D206803798D
:10328000012B1FD0022BF5D18368DB072A464FF0B4
:10329000FF015CBF2A46FF2105F0FEF90028E9D0B6
:1032A0002379DB07EAD4E1222068114604F09CF878
:1032B0000028DFD020683246FF2102B0BDE8704010
:1032C00005F03CBA8268417C90F9100002F00102DE
:1032D000CDE90052FF22FFF741FEDFE7002A43D08D
:1032E000F0B5044683B00E468F18051D206896225F
:1032F000FF2104F079F890B9002003B0F0BD826896
:10330000417C90F9100002F00102CDE90052FF2249
:10331000FFF724FE0028EFD02379DB0710D52068C3
:103320000379012BEBD0022BE6D18368DB072A4619
:103330004FF0FF015CBF2A46FF2105F0ADF9E9E738
:10334000E1222068114604F04FF80028D4D020680C
:103350003246FF2105F0F2F90028CDD00136B74200
:10336000C4D1012003B0F0BD0120704770B50546FF
:103370000B460446164655F8040B82B087211A46C0
:1033800004F032F820680379012B1AD0022B02D006
:10339000002002B070BD8368DB072A464FF0FF01B2
:1033A0005CBF2A46FF2105F077F90028F0D0237989
:1033B000DA07E7D4002EECD0C3F34013337002B029
:1033C00070BD8268417C90F9100002F00102CDE9E5
:1033D0000052FF22FFF7C2FDE7E700BF70B578217A
:1033E00082B0044616460068002203F0FDFF10B9C3
:1033F000002002B070BD251D20680379012B14D078
:10340000022BF5D18368DB072A464FF0FF015CBF32
:103410002A46FF2105F040F90028E9D02379DA0790
:10342000EAD45B09337002B070BD8268417C90F9C8
:10343000100002F00102CDE90052FF22FFF78EFDDD
:10344000EAE700BF30B5CC2283B00446A52100686E
:1034500003F0CAFF10B9002003B030BD2068037923
:10346000012B04F1040514D0022BF4D18368DB078F
:103470002A464FF0FF015CBF2A46FF2105F00CF9F8
:103480000028E8D02379DB07E6D520680379012BF3
:10349000EAD18268417C90F9100002F00102CDE986
:1034A0000052FF22FFF75AFDEAE700BF30B5B42211
:1034B00083B00446FF21006803F096FF10B9002096
:1034C00003B030BD251D20680379012B22D0022BCB
:1034D000F5D18368DB072A464FF0FF015CBF2A461F
:1034E000FF2105F0D9F80028E9D02379DA07EAD4DA
:1034F000CC212046FFF71AFE0028E0D002E0237915
:10350000DB07DDD520682A46FF2105F017F90028E2
:10351000F5D1D4E78268417C90F9100002F00102F5
:10352000CDE90052FF22FFF719FDDCE72DE9F04F4E
:103530008BB0CDE907230446002004908A4603900F
:10354000251D049B079A2046DE0002EBC30BFFF704
:10355000B9FD20B935E0237913F0010207D02068C6
:103560002A46FF2105F0EAF80028F4D129E0059267
:103570009A07099040F1D880F0212046FFF7D6FD48
:10358000F8B1079BDDF81480083E3344012606930A
:103590003746BAF1000F54D0082F52D807F1FF393F
:1035A0004AFA09F909F0010920684FEAC91278219D
:1035B00003F01AFF28B120680379012B50D0022BA9
:1035C00006D00020089B049A1A700BB0BDE8F08F5B
:1035D0008368DB072A464FF0FF015CBF2A46FF21C4
:1035E00005F05AF80028ECD0237913F00102E2D15B
:1035F000C3F3801CD9099B0646D5BCF1000F60D1EE
:10360000BAF1000F5AD0082F58D8894540F0888069
:10361000B9F1000F48D01BF8083033430BF80830DD
:103620007600013716F0FF06FFB2B2D108F10108AB
:103630005FFA88F8B8F1080F43D00126BAF1000FFD
:10364000AAD1049BC3B1039BBB4215D9069B13F8B7
:1036500008301E4214BF4FF001094FF00009A3E7E4
:103660008268417C90F9100002F00102CDE900521D
:10367000FF22FFF773FCB5E7039BA3EB0709B9FA39
:1036800089F94FEA59198FE7BAF1000F13D0082FC3
:1036900011D8894596D1B9F1000FBCD1059BBCF179
:1036A000000F08BF3B4605931BF8083023EA0603CA
:1036B0000BF80830B4E70029ADD1EFE70029AAD113
:1036C000F2E7402F06D8089B049A1B7893423FF6F6
:1036D00038AF77E79BF807700BF1FF360BF1060B5D
:1036E00016F801CF082182EA0C0343F300030139E5
:1036F00023F0730383EA520211F0FF01D2B24FEAC2
:103700005C0CF0D1B345EBD19742DCD1049B013383
:10371000DBB20493059B002B3FF454AF0393D2E735
:10372000DDF8248040464DE7804640464AE700BF2A
:1037300010B500680379012B84B00C461AD0022B17
:1037400002D0002004B010BD836813F0010F03AA5B
:103750004FF0030314BF2221A22104F0DBF800285C
:10376000EFD0BDF90D3003EB83031B12E63323804A
:1037700004B010BD8368417C90F9100003F0010390
:10378000019303AB009322220323FFF7E7FBE6E755
:1037900038B5184D9DF814E005EB40144FEA401C75
:1037A00094F8E10000B938BD84F8F320C4F8F4308F
:1037B000012200234900E03584F8F22084F8FC302F
:1037C000049A84F8F0E0022384F8F110C4F8F82099
:1037D00084F8E230654408F061F802460B4628465A
:1037E000FFF71CF894F8E230002BF4D194F8FC00B9
:1037F00038BD00BFD02F002000680379012B0BD00B
:10380000022B01D0002070478368DB074FF0F002E5
:1038100019D5FF2103F092BD00B5826890F910C060
:10382000417C85B002F0010201920DF10F0200927D
:103830006046FF224FF0F00C8DF80FC0FFF7A8FF95
:1038400005B05DF804FB7F2103F078BD70B5056815
:103850002B79012B84B004460E4617D0022B02D0E0
:10386000002004B070BDAB68E122DB074CBF1146FD
:103870006121284603F062FD0028F1D0206832461D
:10388000FF2104B0BDE8704004F058BFAA68697C0D
:1038900095F9100002F001020DF10F05019200955B
:1038A000E1228DF80F20FFF773FFE5E770B505689B
:1038B0002B79012B84B004460E4618D0022B02D07F
:1038C000002004B070BDAB68DB074FF0C3024CBFF3
:1038D000E1216121284603F031FD0028F0D0206865
:1038E0003246FF2104B0BDE8704004F027BFAA684B
:1038F00095F91000697C02F0010201920DF10F02AE
:103900000092C3228DF80F20E122FFF741FFE4E788
:1039100000680379CA4341EA0211012BCAB209D0F7
:10392000022B01D0002070478368DB0717D5D22116
:1039300003F004BD00B585B090F910C08DF80F20DC
:103940008268417C02F001020DF10F00CDE9000216
:10395000D2226046FFF71CFF05B05DF804FB522140
:1039600003F0ECBC70B505682B79012B84B00446DC
:103970000E461CD0022B02D0002004B070BDAB68F4
:10398000DB074FF0F0024CBFE1216121284603F034
:10399000D5FC0028F0D02246FF2152F8040B04F099
:1039A000CDFE0028E8D02379337004B070BDAA683A
:1039B00095F91000697C02F0010201920DF10F02ED
:1039C0000092F0228DF80F20E122FFF7E1FEE0E700
:1039D00000680379012B0BD0022B01D00020704727
:1039E0008368DB074FF0B40219D5FF2103F0A6BCB2
:1039F00000B5826890F910C0417C85B002F00102E8
:103A000001920DF10F0200926046FF224FF0B40CBC
:103A10008DF80FC0FFF7BCFE05B05DF804FB7F21F9
:103A200003F08CBC00680379012B0AD0022B01D073
:103A3000002070478368DB070A4617D5A52103F0ED
:103A40007DBC00B5826890F910C085B002F001021B
:103A50008DF80F10417C0DF10F00CDE90002A52279
:103A60006046FFF795FE05B05DF804FB252103F0E5
:103A700065BC00BF00680379012B0BD0022B01D07D
:103A8000002070478368DB074FF0960219D5FF21AD
:103A900003F054BC00B5826890F910C0417C85B039
:103AA00002F0010201920DF10F0200926046FF2226
:103AB0004FF0960C8DF80FC0FFF76AFE05B05DF869
:103AC00004FB7F2103F03ABC00680379012B0AD084
:103AD000022B01D0002070478368DB070A4617D508
:103AE000872103F02BBC00B5826890F910C085B027
:103AF00002F001028DF80F10417C0DF10F00CDE9AD
:103B0000000287226046FFF743FE05B05DF804FB24
:103B1000072103F013BC00BF00680379C901012B22
:103B2000CAB206D0022B01D000207047782103F0E2
:103B300005BC00B585B090F910C08DF80F208268E3
:103B4000417C02F001020DF10F00CDE90002782264
:103B50006046FFF71DFE05B05DF804FB00680379C1
:103B6000012B0BD0022B01D0002070478368DB07AC
:103B70004FF0550219D5A52103F0E0BB00B58268CE
:103B800090F910C0417C85B002F0010201920DF164
:103B90000F0200926046A5224FF0550C8DF80FC021
:103BA000FFF7F6FD05B05DF804FB252103F0C6BB69
:103BB000F0B589B00023904A02930393136843F44D
:103BC0008033136003E0029BB3F5A04F09D0136864
:103BD00003F400330393029B01330293039B002BF6
:103BE000F1D0854B1B6813F4003318BF01230393F6
:103BF000039B012B01D000BFFDE77F4B7F491A6C6F
:103C00007F4842F080521A640A6842F440420A60D7
:103C10009A689A609A6842F400429A609A6842F4FC
:103C2000A0529A6058601A6842F080721A601A684E
:103C30009001FCD5734A40F205711160996821F03A
:103C400003019960996841F00201A2F580629960D0
:103C5000936803F00C03082BFAD1936803F00C036C
:103C6000042B00F0C680082B00F0AB80664A624B44
:103C700066499868664D674E674FC0F3031001446C
:103C8000002491F86C10CA406449E9606449586F97
:103C9000A960596BC6F8902921F080015963596FCA
:103CA000604A614841F080715967196B0A431A6391
:103CB0005A6B5A639A6B9A631A6C5C490A431A648A
:103CC000596C5B4A0A435A6448F2FF712346224604
:103CD000CDE9004474F056F85648234622464FF684
:103CE000FF71CDE9004474F04DF853482346224655
:103CF0004FF6FF71CDE9004474F044F84F48234675
:103D000022464FF6FF71CDE9004474F03BF84C4871
:103D1000234622464FF6FF71CDE9004474F032F895
:103D20004848234622464FF6FF71CDE9004474F01F
:103D300029F84548234622464FF6FF71CDE9004455
:103D400074F020F84148234622464FF6FF71CDE932
:103D5000004474F017F8234622464FF6FF713C48A2
:103D6000CDE9004474F00EF804A8FEF71FFBD5F867
:103D7000FC200499D6F89039364842F08072C5F894
:103D8000FC20354AC2F8B00F5460106840F00100C2
:103D900010604FF47A72B3FBF2F3013BB3F1807F12
:103DA0002E4AB1FBF2F2C7F8442108D24FF0E022CC
:103DB000F0215361072385F823109461136109B042
:103DC000F0BD5168536852684902C2F388124CBF73
:103DD00023490D4903F03F03B1FBF3F303FB02F268
:103DE000054B5B68C3F3014301335B00B2FBF3F2A5
:103DF0003DE71B4A3BE700BF00380240007000402F
:103E000008544007003C02400024F400DCFB070893
:103E100000ED00E000000020D02F00200003FA0594
:103E200000000008FF91670000000240FFC9FE107B
:103E3000335707000004024000080240000C024013
:103E4000001002400014024000180240001C024012
:103E50000020024055CEACC5001000E040420F00EB
:103E600000127A0082B0064B002201920193019B5E
:103E700003EB80030193019B196002B0704700BF00
:103E8000502800402DE9F0431C2085B005F066FB6A
:103E90001121044603F0C2F9002C00F0D3812368FD
:103EA000A2885A83C82007F027FD2368A2881A83B6
:103EB0001B2005F053FB20B140F20F120023C280FB
:103EC000037240F20F220023E2802372C24B502182
:103ED000082283F84313C3F88820BFF34F8FBFF342
:103EE0006F8FBE4EBE4D336BDFF84083BD4F002455
:103EF00043F00103336302224FF4C0512846CDE959
:103F00000044032373F03EFF6B6A23F470436B623B
:103F10006B6A43F420436B626B6A23F470236B6219
:103F20006B6A43F420236B62182005F017FB2146CF
:103F300003F074F9726CAC4DAC4BC5F82C3742F4FD
:103F400080427264726BDFF8E8E2DFF8E8C242F0A8
:103F500080027263A64AA74E0120506103F12C0231
:103F60004833C5F83027C5F83437A34AA34BC5F802
:103F70004821A34AC5F85831C5F84C2103F5807390
:103F8000A04AC5F860312033C5F89C21C5F86431DA
:103F900020322033C5F8A021C5F868312032203303
:103FA000C5F8A421C5F86C312032A3F5AC63C5F87F
:103FB000A821C5F85C31A2F5E46203F58073C5F869
:103FC0001422C5F8D831E0324033C5E977234032B6
:103FD0004033C5E97923022140324033C5E97B23D0
:103FE00085F8501120338849C5F8F4314FF0A049C5
:103FF00003F5026385F85301C5F85491C5E9868E2F
:10400000C5E988C7C5E98B61804AC5F8543205F512
:10401000A4764FF05023C5F8342285F85C4221463F
:10402000C5F82832224685F85A023346402483F8E0
:104030001C11A3F8221101310429C3E9494283F874
:104040001D0183F81F21C3F8302103F12803EED1AD
:10405000002233461446402183F87423A3F87A23C0
:104060000132042AC3E9DF1483F8754383F87743E8
:10407000C3F8884303F12803EED14FF0A0474FF077
:104080000008BB6823F00103BB60FB6843F04003FA
:10409000FB606FF0EDFC95F85131B3EB080318BFEE
:1040A00001231B0143F0210363F31748C7F838804D
:1040B000FB68C3F3076222F0600242F0400262F341
:1040C0001F634E4AFB60C7F8004E136864F3CC23AD
:1040D0001360136843F0030313604D4A8021796233
:1040E0004FF4A073BA6202F14012C7F80421C7F876
:1040F0000831C7F80C310394039B43F0200303936A
:10410000039A444B102161F38A120392039A3A6195
:104110003A690392013B02D0039A9106F8D4002336
:104120000293029B43F0100302934FF0A041029AC6
:10413000384B0A610A690292013B02D0029AD20608
:10414000F8D42E4B344A00204FF0FF31186106F1AD
:1041500024055861FF249961D86152F8043F196819
:104160000029B4BF4FF090410021954219601861B9
:104170009C60F2D1294A60360020FF2452F8043FA7
:1041800019680029B4BF4FF0904100219642196090
:1041900018619C60F2D1194C22694FF0A04342F49F
:1041A000807222616FF080411D4A98614FF0FF35A7
:1041B00059615D6059619A6198691A4A1A490243C6
:1041C0009A619A68D1F8D81B42F001029A60884738
:1041D000014B502108222FE000E100E000380240AE
:1041E0000000024000400050D02F0020AC0B002007
:1041F000003C01400060005008040100000800502D
:1042000040004001000B0050007000500080005042
:1042100080004000410D03002C3100206831002057
:104220000008008018383C000000002000100050FA
:10423000002000500030005083F843139A6005B00E
:10424000BDE8F083C82007F057FB1B2005F086F976
:1042500000283FF43BAE40F20F13C380047235E6F2
:10426000704700BF704700BF704700BF10B5104CCB
:1042700094F8523123B90F4B4FF480225A6110BD8C
:104280004FF0E022D2F8103D23F00603C2F8103DB3
:10429000FDF760FCD4F858319B68DB07EBD5D4F808
:1042A0005422136823F0030161F307031360E2E76C
:1042B000D02F0020003C01402DE9F04FA34CD4F852
:1042C00054315A69D5078BB002D50BB0BDE8F08FD9
:1042D0005A699B6912EA0301F7D0C1F30743080347
:1042E000019300F1E180019B5D073FD48807CEB2C6
:1042F00003D5D4F8543102225A610029C0F2488211
:104300000A05C1F3072500F19981370708D5904BBD
:104310009048D3F81C3C9847D4F8543108225A618D
:10432000F60600F10D82E80600F1BE81A80600F154
:104330001781019BDA0609D5854B8648D3F82C3CBA
:104340009847D4F854314FF480125A61019B9B0670
:10435000BBD57F4B7F48D3F8303C9847D4F85431D5
:104360004FF400125A610BB0BDE8F08FD4F8583109
:104370009E69DB691E40B6B2002EB7D0754D4FF076
:10438000000B05F118080F46F00740F18280D4F8C1
:104390005811D8F8002008694B6B23FA0BF3DB01A6
:1043A000DBB203439068034013F00109D8B200F078
:1043B0000D824B6B012000FA0BF023EA00034B63E4
:1043C00001239360624B6348D3F8143C5FFA8BF18E
:1043D000984794F84B31012B00F07C8219F0800F44
:1043E00057D0D5E94CC1D5F82431D8F800E0ACEB72
:1043F00001029342DEF8180028BF134680B203334F
:10440000B0EB930F45D9D4F8583194F84B91CDE9DE
:10441000026BBA4667469C46B94237D2D5F824317A
:10442000781A984228BF184600F1030BD5F82831B6
:104430004FEA9B0BB9F1000F10D182B203329210F8
:10444000D8F8B8600AD04946013153F8047B376088
:104450008A42F9D1D5E94C71D5F828310144034499
:104460008F42C5F82831C5F83411DEF818300AD16A
:1044700095F81C01012202FA00F0DCF8342022EA4F
:104480000002CCF834209BB29B45C5D3DDE9026B1A
:10449000574676080BF1010B05F1280508F10408D1
:1044A0007FF472AF394621E7D4F858319D69DB6952
:1044B0001D402D0C3FF417AF04F5A478DFF890B041
:1044C000029104F5CE7600274FF00109C24608E0BC
:1044D0006D0807F1010706F1040608F1280800F04D
:1044E0008F81EA07F4D53068D4F858118368496998
:1044F0000B40D9B2DB0740F16E8194F84B31C0F824
:104500000890012B07D10169D8F87C33C1F312015F
:104510005B1AC8F88C33DBF8103CF9B25046984768
:1045200094F84B31012BD3D1002FD1D194F85932CB
:10453000052BCDD1D4F89C31074919610749596140
:1045400019684FF080211960C2E700BFD02F00200A
:10455000000000201831002018000860E436002018
:10456000D4F85851D4F86021AB68C3F34103022B4F
:10457000136814BF0021032161F30A0313606B6801
:1045800043F4807306A86B60FDF710FFD4F8542144
:10459000079ED36823F47053D360A86810F0060F09
:1045A000C0F3410100F03A819E499F483144814265
:1045B00040F2AC819D48A6F57401A1F510518142ED
:1045C00040F2A8819A499B4831448142C0F0A681BB
:1045D0009948A6F18C71A1F54341814240F2A28134
:1045E0009649974831448142C0F0A0819549964848
:1045F00031448142C0F09E819448A6F1B771A1F583
:1046000058518142C0F09E81914992483144814283
:10461000C0F09481904891493044884234BF0620CC
:1046200005204025012160F38D23D3604FF4005312
:1046300084F84A11A4F84C5153617AE600238DF8AE
:10464000133094F85A328DF81330854B8548D3F8DF
:10465000243C9847D4F85831D4F85421986894F8F9
:1046600052314FF400615161002B3FF44EAEC3074D
:104670007FF54BAE94F85D32012B7FF446AE9DF88A
:104680001330032B7FF441AED4F8543276491A68C4
:1046900042F001021A601A6842F003021A600B69C4
:1046A00043F006030B6130E6D4E955167368002722
:1046B00023F0010373600597059B43F020030593E6
:1046C000059B67F38A130593059B0B61674BBC46FB
:1046D0000A690592013B02D0059A9206F8D494F833
:1046E000492152B1624B03EB820EFF2253F8040FB3
:1046F0008260D86B73458260F8D10B2363F30707A0
:1047000063F3070C4FF0FF33B3614FF00113F36114
:104710007761C6F810C03368564823F4FE633360EF
:1047200094F84B21D4F89C31012A18616FD04FF4D2
:1047300080534B614A4B4B48D3F8203C9847F5E5F2
:10474000D4F854319A6922F010029A611A6AC2F3BD
:104750004340022802F00F0100F09080062812D199
:1047600001EB810104EBC101D4F81862D1F8D40443
:10477000C2F30A1210443268C4F814273268C4F82D
:104780001827C1F8D4049A6942F010029A61CAE568
:1047900094F852313BB1D4F85422136823F003004B
:1047A00060F307031360D4F858212D4B2D48D3F83C
:1047B000285C5368029123F001035360A847D4F8A2
:1047C000543102994FF000425A6199E5010707D52B
:1047D000082393605DE68A0707D50223836077E6A6
:1047E000C3060FD51023936053E60B077FF570AE19
:1047F000DBF8183C5046984733680821996067E613
:10480000029970E5410679D54023936041E61A4A42
:104810005A611A684FF080221A6088E74FF40075D9
:10482000092000E7401E1BFF3F420F00DFC81000B9
:104830002013FBFE20D61300FF69180000D3CEFE24
:1048400040771B00C05BB3FEC091210040AC270045
:10485000C01D6AFE40E13300803C36FEE09C410012
:10486000000000201831002000ED00E0410D0300A1
:104870002C31002018000860E436002047F6F07064
:10488000104280D0C2F30A1201EB810004EBC00099
:1048900002F1030C5FEAAC0CD0F8C864D4F818E25B
:1048A0004FEA810818BF002006D00130DEF8007002
:1048B00046F8047B8445F8D1414404EBC101D1F8AA
:1048C000C8041044C1F8C804D1F8D4041044C1F895
:1048D000D40458E7BBF1000F7FF480AD94F859324F
:1048E000042B7FF47BADD4F89C31184A1A61184A26
:1048F0005A611A684FF080221A606FE5830758BF2B
:1049000081467FF56BAD02239360C2E5012140250E
:104910000E2088E6012140250D2084E60121402556
:104920000C2080E6012140250B207CE6012140255A
:104930000A2078E601214025092074E6012140255E
:10494000072070E60121402508206CE61800086069
:10495000E43600200369416890ED067AF0B4C56A38
:104960003B4E876853EA010204BF56F8C01C416001
:104970006A1C30EE077A0133012A80ED067A036162
:10498000C26241D090ED075AD0ED096A56F8C04C8A
:1049900007EE902A70EE455AB8EEE76A611AC5EE46
:1049A000867AB94277EE857A30EE670AC0ED087AEA
:1049B000E5EE806AC0ED077AC0ED0A6AC0ED096ACB
:1049C00001D8F0BC7047012A2ADD07EE905AF8EEB4
:1049D000E77A86EEA76AB5EEC06AF1EE10FA1FDB41
:1049E000F1EEC67AF4EE677AF1EE10FA18D6D0ED51
:1049F000056AF4EEE76AF1EE10FA14D5037BF3B121
:104A00000323F0BC0370704756F8C02C80ED080AF1
:104A1000521ABA424FF0000180ED070A4162D0D924
:104A2000DFED0C7AE3E707EE903AF8EE677A0223BF
:104A3000C7EE276AF0BC0370C0ED066A704756F8EF
:104A4000C01C4160002203618261C362B9E700BFFC
:104A5000D02F002000000000DFED504A10B5844642
:104A600000F1480E0346B1EC017AD3ED067ADA6A1A
:104A700077EE877A0132012AC3ED067ADA6255D0E1
:104A800093ED075A93ED096A07EE902A77EE455A9F
:104A9000F8EEE77AC5EEA76A76EE857AF0EE466A1A
:104AA00037EE677AC3ED087AE5EE876AC3ED0A6AE6
:104AB000C3ED077AC3ED096A18337345D3D1384C77
:104AC000416854F8C02C0369521A816801338A4244
:104AD00003612AD990ED056A00F1300EDCF82C2034
:104AE000DCED0A6A012A02F1FF3126DD07EE901A99
:104AF000F8EEE77A86EEA77AB5EEC07AF1EE10FA14
:104B00001BDBF1EEC77AF4EE677AF1EE10FA14D6F9
:104B1000E645B4EEE76A0CF1180C16D0F1EE10FA87
:104B2000DCD5037B6BB30323037010BDF0EE477A33
:104B3000F0EE646A83ED087ABAE7DFED187AE645AD
:104B4000B4EEE76A0CF1180CE8D1F1EE10FAE8D4F3
:104B500007EE903AD0ED066A90ED0C7AD0ED125A3D
:104B6000F8EE677A022386EEA76A0370C7EE276A1B
:104B700085EEA77A80ED066AC0ED0C6A80ED127AA8
:104B800010BD002254F8C01C416003618261C36201
:104B9000026343648264C36510BD00BF000000006F
:104BA000D02F0020B0EEC06AF0EEE05AF4EEC65A04
:104BB000F1EE10FAF0EE407A0EDCB5EE400AF1EEBE
:104BC00010FA4BD0F4EEC65AF1EE10FAF0EE466A47
:104BD00050D5B0EE655A03E0F0EE656AB0EE465A85
:104BE00085EE267A9FED252A9FED253A9FED254AF1
:104BF000DFED254ADFED252ADFED253ADFED256AD9
:104C0000A7EE023AE7EE223AA7EE034AB7EE005AC1
:104C1000E7EE044AA7EE235AE7EE246AF4EEC65AFA
:104C2000B1EE667A87EE050AF1EE10FA48BF9FED05
:104C30001A7AF5EEC00A48BF37EE400AF1EE10FAD4
:104C400048BF9FED167AF5EEC07A48BF37EE400AAE
:104C5000F1EE10FA48BFB1EE400A7047DFED107A6E
:104C60009FED100AF5EEC00AF1EE10FA58BFB0EE53
:104C7000670A7047B0EE465AB2E700BF39094E3DA9
:104C8000E3B59EBE88FA16BE45FE7FBF99FB243F62
:104C900069A2163EA7DFA8B4DB0FC93FDB0F49406E
:104CA000A7DFA834DA0F494091ED007AD0ED047AFD
:104CB00090ED054AD0ED064A90ED075AD0ED085A1E
:104CC00090ED096AD0ED0A6AE7EE077AF7EE003A4E
:104CD000C0ED047A91ED007AD1ED017AA7EE274A72
:104CE00090ED0B7A80ED054A91ED024A91ED003A84
:104CF000D0ED0C7AE3EE044AC0ED064AD1ED004A4D
:104D000035EE245A80ED075AD1ED014A91ED005A53
:104D1000E4EE855AC0ED085AD1ED015AA5EEA56A18
:104D200080ED096AD1ED015A91ED026AE5EE866ADD
:104D3000C0ED0A6AD1ED016A37EE267A80ED0B7A72
:104D4000D1ED026A91ED007AE6EE877AC0ED0C7A39
:104D500091ED026AD1ED016AD0ED0D7A90ED0E7AF7
:104D600090ED0F4AD0ED104A90ED115AD0ED135A44
:104D7000E6EE267A75EEA35AC0ED0D7AD1ED026A01
:104D8000D0ED127A90ED006AA6EEA67AD0ED016A17
:104D900080ED0E7A91ED027A34EE074A90ED027AB8
:104DA00080ED0F4A91ED004A74EE844AC0ED104A3E
:104DB000D1ED014A35EE245A80ED115A91ED025A97
:104DC000C0ED135A77EE857AC0ED127AD1ED017AF3
:104DD000D1ED005A91ED025A67EEA77AE5EEA57A79
:104DE000E5EE057AA5EEA76A80ED006A91ED016A0D
:104DF000E6EE276AC0ED016AD1ED026AA6EEA77A57
:104E000080ED027A90ED037A77EE277AC0ED037A8F
:104E1000704700BF2DE9F04F4FF0000989B086467A
:104E200000F110050646034600F1300807464846E3
:104E30002C46CDF80CE08B469C46B24600283CD16F
:104E40000CF1040CA445FBD1032800F1010151D061
:104E50009C46AA46029398B1DCED047A0192AAEB33
:104E60000903B6467246F3EC016A92ED007AE6EE6B
:104E7000C77A53450EF1100ECCED047AF2D1019AA7
:104E8000DCED046A15ED047AC6EE877A0CF1100C9D
:104E9000C4450AF1100ACCED007ADCD1029B04363D
:104EA0001433084608F1040814351034103709F19A
:104EB00004099C46B2460028C2D0DCED007A01927B
:104EC000D64639467246F1EC016A92ED007AE6EE7A
:104ED000C77A99420EF1100ECCED007AF2D10CF1A6
:104EE000040CA445019A0AF1040AE6D1032800F152
:104EF0000101ADD1DDF80CE0002359460493059380
:104F0000069307937646774604AD0020F2EC017ACB
:104F1000E5EC017AB0B104AC3B46B4EC017AF3ECB9
:104F2000016AE6EEC77AB34245ED017AF5D1013068
:104F300004280BD0F2EC017A10371436E5EC017A34
:104F40000028E8D1103714360120DFE708AD75EDF1
:104F5000017A10310EF1400E04287446A1F10402CA
:104F600041ED017A1ED07346F3EC016AB1EC017A8F
:104F7000E6EEC77AA342C2ED007AF5D15EED016A92
:104F800087EEA67A013882ED007A17D0AEF1140EC2
:104F9000103C114675ED017A0428A1F1040241ED9F
:104FA000017AE0D15EED016A87EEA67A103CAEF19F
:104FB000140E032001ED017A1146EBE709B0BDE8BC
:104FC000F08F00BFDFED297AB4EEE70AF1EE10FAB8
:104FD00028DD9FED277A30EE470AB4EEE70AF1EEBE
:104FE00010FAF8DCDFED237AB4EEE70AF1EE10FAFE
:104FF0002FDD30EE670A37EEC00A60EE007A9FEDD3
:105000001E7A9FED1E6ADFED1E6AA7EE876A9FED8E
:105010001D7AE7EE866A60EE275AA7EEA67AA5EE1D
:10502000870A7047DFED187AB4EEE70AF1EE10FA5E
:10503000D8D59FED0F7A30EE070AB4EEE70AF1EE0D
:1050400010FAF8D4DFED0B7AB4EEE70AF1EE10FABD
:10505000CFDC9FED0E7AB4EEC70AF1EE10FA44BF32
:1050600030EE270A37EE400AC7E700BFDB0F4940A2
:10507000DB0FC940DB0FC93F9A7C2E36FAAF4FB920
:105080003587083CA4AA2ABEDB0F49C0DB0FC9BF85
:1050900010B5404CB4FBF2F4A14219D3DFED3E7AD7
:1050A000F7EE005AB0EE677AB0EE676AF0EE676A24
:1050B0000023C0ED005AC0ED017A80ED027A80ED48
:1050C000036AC0ED046A836143610362C36110BD7A
:1050D00007EE902AB8EE677ADFED307A27EE277A6E
:1050E000B7EE006AC6EE076A07EE901A9FED2C7ABB
:1050F000F8EE677AB0EE405A67EE877AC7EEA64AB6
:10510000FDEEE47A17EE902A2032402A3FD8B0EE26
:10511000640AFFF757FFB0EE404ADFED227A34EE23
:10512000A70AFDEEC07A17EE902A2032402A29D82D
:10513000FFF748FFF8EE006A60EE266A012B1CD0EC
:10514000B7EE006A36EE406AF6EE004A66EE244A92
:1051500035EE055AF7EE007A84EE057A77EE275A97
:1051600037EEC75A84EEA57AC6EE257A86EEA56A92
:10517000C5EE256AF0EE475A9AE7B0EE666AF7EE9A
:10518000004AE5E7DFED086A9FED030AD6E79FEDE9
:10519000024AC2E720A1070000000000BD378635A3
:1051A000DB0FC940DB0FC93F00000080DFED077A4D
:1051B00030EE270AFDEEC07A17EE903A2033402BEE
:1051C00000D8FFE69FED020A704700BFDB0FC93F22
:1051D000000000002DE9F84FDDF82CB09DF82840C4
:1051E0008946002C1BF8011B0CBF4FF020084FF024
:1051F00030081C1E0546174608463ADB00295CD0DD
:10520000002C55D04FF0000A5B4600E064B313F861
:10521000016B013C002EF9D1BAF1000F2FD12646C7
:1052200044B14D454146284600D2B847013CF8D12B
:105230000B9B18780146A0B14FF0FF344FF0000AE5
:1052400000E09B464D45284600D2B8475B4613F820
:10525000011B0029F5D10B9BF61A5E44BAF1000F31
:1052600010D13046BDE8F88FBAF1000F1BD1564679
:10527000E0E7634229B31C464FF0010AC4E7002867
:10528000E0D10646002C04F1FF3AEADD54464D45D4
:105290004146284600D2B847013CF8D20136564470
:1052A0003046BDE8F88F06460028DAD02646C9E722
:1052B0002646A2464FF0FF34C4E72646002CB0D164
:1052C000CFE76FEA040A0E46E0E700BF0FB430B53F
:1052D00083B006AB0C4853F8042BD0F8DC18D0F898
:1052E000D808019370F03AFB084C0546D4F828081A
:1052F00003685B6998470028F8D0284603B0BDE8EA
:10530000304004B0704700BFD02F0020D81E0020CE
:105310000EB410B583B005AB044653F8042B07490F
:10532000009301A8019470F019FB019B00221A70F0
:1053300003B0BDE8104003B0704700BF310900085A
:105340000CB4F0B53C4CD4F8E038ADF5277D002B1B
:105350006DD094F8E83899420BD9D4F8EC280123A1
:105360008340134205D10DF5277DBDE8F04002B022
:10537000704754F8C03C314AA2FB030292094FF433
:105380007A7101FB123306A82D49FFF7C1FF06AB66
:1053900003442C49AC9A01930646ADAB01A8009397
:1053A00070F0DCFA019B0A22591C01911A70019BD2
:1053B0000022591C01911A70D4F8E058ADB12B6845
:1053C0005B6A1BB128469847D4F8E0589DF818103E
:1053D0000029C8D00DF119042B6828461B6898478E
:1053E00014F8011B0029F7D1BDE7D4F8E478002FA9
:1053F000B9D0304426AB841CFD2206A9ADF810209C
:1054000018462246CDF81250ADF8165077F080F9C4
:1054100002220346044402A93846CDE9023439F099
:105420000FF90DF5277DBDE8F04002B07047D4F8C4
:10543000E438002B8DD196E7D02F0020D34D621099
:1054400010A5080801070008194A10B5D2F8F0485D
:10545000033004EB9003B3F5007F19D8C2F8F0389D
:1054600002F6F40202EB8404124A02EB810120F0FE
:10547000030051F8042CC3F50073104441F8040CE8
:105480000D4A9B0004210020FFF75AFF204610BD63
:1054900000210846094AFFF753FF094AD2F8AC3009
:1054A000002443F00073C2F8AC30204610BD00BFAA
:1054B000D02F0020C84000201CA5080840A50808DF
:1054C000000000102DE9F0410268214D074600243C
:1054D00055F834309A4209D001340E2CF8D11D4AC7
:1054E00000210520FFF72CFF002013E01A4B03EBEF
:1054F0008408D8F8A4607EB1797901EB410306EB0A
:10550000C30300221820C3E9032200FB01609F604F
:105510001A750430BDE8F08107216420FFF794FF7D
:105520000146C8F8A40068B13146642279F066F9F2
:10553000D8F8A46005EBC405C6E90056F6617663A9
:10554000F664D9E7054A0520FFF7FAFECCE700BF6D
:1055500068FC070850A50808D02F002078A5080887
:1055600070B50668F46982B00546002C3FD03379E7
:10557000012B04F103022DD0022B26D1B36813F0C6
:10558000010F30464FF00D0314BF0C218C2102F0A7
:10559000C1F9A070D8B1B4F90A3007EE903AF8EE2C
:1055A000E77AC5ED077AB4F90C3007EE903AF8EED9
:1055B000E77AC5ED087AB4F90E3007EE903AF8EEC6
:1055C000E77AC5ED097A02B070BD0023A370002010
:1055D00002B070BDB368717C96F91000009203F0C0
:1055E000010301930C220D23FDF7B8FCD1E709213B
:1055F0001420FFF729FFF06104462E68B7E700BFCB
:1056000038B50568EB690446E3B1987800B938BD50
:10561000B3F9042007EE902AF8EEE77A0120C4EDF2
:10562000047AB3F9062007EE902AF8EEE77AC4ED83
:10563000057AB3F9083007EE903AF8EEE77AC4ED50
:10564000067A38BD09211420FFF7FEFE0346E86103
:10565000DBE700BF03685A1C02601878704700BF80
:1056600003681A46591C016012F8021B0260587840
:1056700041EA0020704700BF10B402681346511C75
:10568000016013F8021B0360D31C54780360937805
:105690001B0443EA0423141D0460D0785DF8044B16
:1056A0000B4343EA0060704712B370B50446864668
:1056B00004E0981B17D114EB0C0C15D01EF8013B1D
:1056C000A3F14100192811F8010BA0F1410598BF81
:1056D0002033192DA2EB0E0C00F12006E9D91B1A7C
:1056E00004D10028E7D170BD604670BD184670BD7A
:1056F0001046704710B402888378184C02F00301FA
:1057000001EB4101013B03EB810304EB4303C1784F
:10571000B3F8FC30A2F5FA62920840F2B55404FBEB
:1057200002334A1E1344017942798479008903EBDC
:10573000430301EBC301C1EB0111094B02EB8102F1
:10574000C2EB0212234403EB820300214FF47A726E
:10575000C3FB02015DF8044B704700BFDCFB070888
:1057600080436D38F8B516461F4604463946304624
:105770004FF47A72002373F0C5FA3C4D3C4B05445C
:1057800083FB05602844E917C1EB601183FB01032B
:105790000B44384EC817C0EB631086FB003CC317A0
:1057A000354EC3EBAC0386FB03764FEAE37ECEEBCC
:1057B000E61EC1EB0116A5EB860CC0EB0015A1EBB4
:1057C0008501617103EB4301A0EBC10040F2B551CB
:1057D00001FB1E33B3F5896F84F806C020714FEAD0
:1057E0008E0637DA40F2DA218B4239DCB3F5B77F27
:1057F000B4BF4FF0000E4FF0010E20490EEB4E00EB
:1058000001EBC0017546B1F812014FEA4E071C4981
:1058100007EB0E0C01EBCC0C0CF1160C0B2101E08C
:105820003CF8020D984212DD0139F9D11349774451
:1058300001EBC701B1F8FC000121013306F5FA6E56
:105840001B1A7544A170E37022812580F8BD0131D7
:10585000C9B2F2E7032540F29650AE460627D6E7D6
:10586000022540F22940AE460427D0E780BC92C70B
:1058700089888888ABAAAA2A73B06D16DCFB070852
:10588000D8FC070830B52F4C86460D460FCC8DB09E
:10589000EC46ACE80F000FCCACE80F0094E80F002A
:1058A0001EF0030F8CE80F000FD1274B274A03FB94
:1058B0000EF3B2EBB30F43D3254AB2EB331F34BF21
:1058C00001220022C2F11D0200E01C220EF1FF3372
:1058D000002B019240F26D12194602FB0EF2B8BF86
:1058E0000EF1020102EBA1021A491B4C81FB0301DC
:1058F000DB17A3EB61100244C3EBE1131A4425321A
:1059000084FB02311144D317C3EBA103C3EBC303E0
:10591000D31AADF10402EE4602EB85015EF8040FE6
:10592000C21884FB023C9444D317C3EBAC03C3EB13
:10593000C3037145A2EB0303F0D1C01A0DB030BD13
:105940001D22C3E738FD0708295C8FC2285C8F023F
:105950000AD7A3001F85EB51932449920D4B10B534
:10596000D3E9224354EA030209D1014640F201136C
:105970000020C1F8023088710880088110BD064AF5
:1059800052F8C02C121943F10003FFF7EBFE01207F
:1059900010BD00BFC8400020D02F002088422DE954
:1059A000F0414FF001043DD301FB04F4B0FBF4FCE3
:1059B0008C45F9D23CB3002616E0BCF1090F27460E
:1059C00098462C4623DD002A0CBF4FF0570E4FF0AF
:1059D000370EF444B94288F800C003F1010306F120
:1059E000010610D8B0FBF5FCB4FBF1F504FB1C007C
:1059F000002EE2D1BCF1000FDFDCA1420AD90CF18C
:105A0000300C03F801CB00221A70BDE8F0814FF092
:105A1000300EDEE7B0FBF5FC2C4605FB1C00B5FBA9
:105A2000F1F5E7E78446C6E72DE9F04104469442E4
:105A30001546084609D2B4FBF2F6154B05FB164491
:105A40001B5D00F8013BBDE8F081B4FBF2F6964225
:105A5000B6FBF2F70CD20E4B05FB176705FB16449D
:105A6000DA5D00F8012B1B5D00F8013BBDE8F08119
:105A7000BA42B7FBF2F807D9054B05FB187813F8C3
:105A8000082000F8012BE7E74046FFF7CDFFF3E7DA
:105A900094A50808B5EEC00ADFED347AF1EE10FAED
:105AA000CCBF30EE270A30EE670ADFED317A20EE08
:105AB000270A30B5FDEEC07A87B017EE904A05464A
:105AC00084EAE470002303A9A0EBE470CDE900337D
:105AD00002936DF06BFF002CB4BF2D23202303A88D
